:020000040800F2
:1000000040040020490100082906000825050008D1
:100010002506000895020008AB1500080000000046
:100020000000000000000000000000002D08000893
:10003000C1020008000000009D060008BD0900087C
:100040006301000863010008630100086301000800
:1000500063010008630100086301000863010008F0
:1000600063010008630100086301000863010008E0
:1000700063010008630100086301000863010008D0
:1000800063010008630100086301000863010008C0
:1000900063010008630100086301000863010008B0
:1000A00063010008630100086301000863010008A0
:1000B00063010008610C0008790C00086301000866
:1000C0006301000863010008630100086301000880
:1000D00063010008AD130008630100086301000814
:1000E0006301000863010008630100086301000860
:1000F0006301000863010008630100086301000850
:10010000630100086301000863010008630100083F
:10011000630100086301000863010008630100082F
:10012000630100086301000863010008630100081F
:10013000DFF810D000F030F8004800472918000818
:10014000AFF300804004002006488047064800477F
:10015000FEE7FEE7FEE7FEE7FEE7FEE7FEE7FEE777
:10016000FEE7FEE7C10900083101000830B50B4683
:10017000014600202022012409E021FA02F59D42D7
:1001800005D303FA02F5491B04FA02F52844151EAB
:10019000A2F10102F1DC30BD064C074D06E0E0683B
:1001A00040F0010394E8070098471034AC42F6D3BE
:1001B000FFF7C2FFB8190008D819000808B50121D7
:1001C000102000F08DFA4FF47070ADF80000182088
:1001D0008DF8030003208DF802006946014800F005
:1001E0000DF908BD0010014030B587B005460C463A
:1001F0000121480300F074FA254800F073FD681EE1
:1002000080B2ADF81400ADF810400020ADF8160033
:10021000ADF8120004A91E4801F06CF86020ADF89A
:1002200000000120ADF802000020ADF80600ADF896
:1002300008006946164800F0D3FE6946144800F0ED
:1002400025FF6946124800F081FF6946104800F01A
:10025000D7FF01210E4800F036FD08210C4800F0C0
:100260000BFF08210A4800F063FF0821084800F04E
:10027000BDFF0821064801F001F80121044800F003
:1002800007FD0121024800F012FD07B030BD00005B
:100290000034014000BFFEE70146072323EA0102C4
:1002A0001202054B18684FF6FF031840034B184322
:1002B0001043014B186070470CED00E00000FA0598
:1002C0007047000000B587B00121022000F0E8F976
:1002D0000121042000F004FAC020ADF80000042041
:1002E0008DF8030069461C4800F088F804A801F066
:1002F00053F80020ADF810004FF6FF70ADF8140071
:100300000020ADF81600ADF8120004A9134800F063
:10031000F1FF00231A460321104800F0D7FD01A881
:1003200000F04CFE0A20ADF80C0001A90B4800F0CB
:10033000EFFD0121094800F0B7FC012211460748F2
:1003400000F045FE0021054800F0A5FF012103480B
:1003500000F0ADFC07B000BD000801400004004003
:1003600000B587B00121042000F09AF9012108208E
:1003700000F0B6F9C020ADF8000004208DF80300AD
:1003800069461C4800F03AF804A801F005F800207E
:10039000ADF810004FF6FF70ADF814000020ADF876
:1003A0001600ADF8120004A9134800F0A3FF0023C3
:1003B0001A460321104800F089FD01A800F0FEFD57
:1003C0000A20ADF80C0001A90B4800F0A1FD0121A5
:1003D000094800F069FC01221146074800F0F7FDCA
:1003E0000021054800F057FF0121034800F05FFCA1
:1003F00007B000BD000C0140000800402DE9F041AD
:10040000024600250026002000230024002791F842
:1004100003C00CF00F0591F803C00CF0100CBCF1F8
:10042000000F03D091F802C04CEA050591F800C016
:10043000BCF1000F31D0146800202BE04FF0010C0C
:100440000CFA00F3B1F800C00CEA03069E4220D17A
:1004500083004FF00F0C0CFA03F7BC4305FA03FCC2
:100460004CEA040491F803C0BCF1280F06D14FF008
:10047000010C0CFA00FCC2F814C00AE091F803C0A9
:10048000BCF1480F05D14FF0010C0CFA00FCC2F88A
:1004900010C0401C0828D1D31460B1F800C0BCF1D2
:1004A000FF0F34DD546800202EE000F1080C4FF0FF
:1004B000010808FA0CF3B1F800C00CEA03069E42EA
:1004C00021D183004FF00F0C0CFA03F7BC4305FA5F
:1004D00003FC4CEA040491F803C0BCF1280F05D1D9
:1004E00000F1080C08FA0CF8C2F8148091F803C067
:1004F000BCF1480F07D100F1080C4FF0010808FAD1
:100500000CF8C2F81080401C0828CED35460BDE817
:10051000F0810246002093680B400BB1012000E0FF
:100520000020704700BFFEE708B50121082000F059
:10053000D7F80820ADF8000010208DF80300022045
:100540008DF8020069460348FFF758FF0020024972
:10055000086008BD000C01408C812142014649061B
:10056000084A926942F00102064B9A61064A5268B3
:1005700022F0E062044B5A601A4652680A435A60FD
:1005800070470000001002400000014010B500F06C
:1005900001F810BD08B50121042000F0A1F84FF4C6
:1005A0008070ADF8000048208DF8030069460248CD
:1005B000FFF724FF08BD00000008014010B5044605
:1005C00000F022F801280BD1601C0D490988B1EB1D
:1005D000400F0ADA0A480088401C0949088004E0F4
:1005E000002007490880074908800548008802283C
:1005F00003D101200349088010BD0020FCE7000062
:100600003A0000203800002010B54FF480710448F3
:10061000FFF77FFF08B9012010BD0020FCE70000B4
:100620000008014000BFFEE77047000070B50021E0
:1006300000230F22C47804B3154C246804F4E0644A
:10064000C4F5E064210AC1F10403CA40447804FA05
:1006500003F184781440214309010E4C0678A1551A
:10066000047804F01F050124AC4005786D11AD003D
:1006700005F1E025C5F8004109E0047804F01F0504
:100680000124AC40044D0678761145F8264070BD33
:100690000CED00E000E400E080E100E070470000C5
:1006A00029B1064AD2690243044BDA6104E0034AE5
:1006B000D2698243014BDA617047000000100240AA
:1006C00029B1064A12690243044B1A6104E0034A45
:1006D00012698243014B1A6170470000001002400A
:1006E00029B1064A92690243044B9A6104E0034A25
:1006F00092698243014B9A617047000000100240EA
:1007000029B1064AD2680243044BDA6004E0034A86
:10071000D2688243014BDA6070470000001002404B
:1007200030B500210022002400232D4D6D6805F016
:100730000C0121B1042905D0082923D105E0294D58
:10074000056022E0274D05601FE0254D6D6805F42A
:100750007012234D6D6805F48034022505EB92423A
:100760001CB9214D554305600BE01D4D6D6805F426
:1007700000351DB11C4D5543056002E0194D554330
:10078000056002E0174D056000BF00BF144D6D68A5
:1007900005F0F0010909154D6B5C0568DD40456009
:1007A0000F4D6D6805F4E061090A104D6B5C4568FA
:1007B000DD4085600A4D6D6805F46051C90A0B4D36
:1007C0006B5C4568DD40C560054D6D6805F44041D2
:1007D000890B074D6B5CC568B5FBF3F5056130BD52
:1007E0000010024000127A0000093D001C000020A9
:1007F0002C000020014611B101290ED106E0094A62
:10080000128810B20022074B1A8008E0064A1288AC
:1008100010B20022044B1A8001E0002000BF00BF8C
:10082000704700002404004024080040704710B5C1
:1008300000F002F810BD00000CB5002001900090FF
:100840003348006840F480303149086000BF3048C8
:10085000006800F4003000900198401C019000985E
:1008600018B90198B0F5A06FF1D12948006800F4DB
:10087000003010B10120009001E0002000900098AD
:10088000012843D12348006840F010002149086046
:100890000846006820F0030008600846006840F041
:1008A000020008601A4840681949486008464068D4
:1008B00048600846406840F48060486008464068E8
:1008C00020F47C1048600846406840F4E810486016
:1008D0000846006840F08070086000BF0C4800685F
:1008E00000F000700028F9D00948406820F00300AB
:1008F000074948600846406840F00200486000BF71
:100900000348406800F00C000828F9D10CBD000035
:10091000001002400020024000B503460A4623B9F9
:1009200000201B490880091D08802AB900201849A9
:1009300008310880091D0880002B09DD184600F0E9
:10094000E3FF1349091D08800020091F088008E003
:1009500000200F49091D0880184600F0D5FF0C49FA
:100960000880002A09DD104600F0CEFF0849083152
:1009700008800020091D088009E000200449083192
:100980000880104600F0C0FF01490C31088000BD0E
:1009900034340140042808D14FF0E021096941F0C6
:1009A00004014FF0E022116107E04FF0E0210969F6
:1009B00021F004014FF0E022116170477047000000
:1009C00010B51348006840F001001149086008465E
:1009D0004068104908400E494860084600680E49C2
:1009E00008400B4908600846006820F48020086031
:1009F0000846406820F4FE0048604FF41F008860FD
:100A0000FFF715FF4FF000600449086010BD0000BB
:100A1000001002400000FFF8FFFFF6FE08ED00E0C6
:100A2000F0B50C46154600220021068C4FF6FE77E5
:100A30003E400684028B018C4FF60C7632407E1CC1
:100A400006EA03162E433243104EB0420ED0104E2B
:100A5000B0420BD0B0F1804F08D00E4EB04205D05E
:100A60000D4EB04202D00D4EB04206D14FF6FD768B
:100A7000314044F00106314305E04FF6F576314050
:100A800044F00106314302830184F0BD002C014093
:100A9000003401400004004000080040000C004009
:100AA000F0B50C461546002200210026078C4FF6B3
:100AB000EF7C07EA0C070784028B018C4FF6FF7767
:100AC00007EA041640F6FF473A404FF6FF7707EA79
:100AD00003373A434FF6FF7707EA05273A43114FAA
:100AE000B8420ED0104FB8420BD0B0F1804F08D0B2
:100AF0000E4FB84205D00E4FB84202D00D4FB8424B
:100B000006D14FF6DF77394046F01007394305E04C
:100B10004FF65F77394044F0100739430283018470
:100B2000F0BD0000002C01400034014000040040F2
:100B300000080040000C0040F0B50C4615460022AD
:100B400000210026078C4FF6FF6C07EA0C0707848C
:100B5000828B018C4FF6FF7707EA04264FF60C775D
:100B60003A404FF6FF7707EA03172F433A43114FF6
:100B7000B8420ED0104FB8420BD0B0F1804F08D021
:100B80000E4FB84205D00E4FB84202D00D4FB842BA
:100B900006D14FF6FF57394046F48077394305E0D8
:100BA0004FF2FF57394044F4807739438283018400
:100BB000F0BD0000002C0140003401400004004062
:100BC00000080040000C0040F0B50C46154600221D
:100BD00000210026078C4EF6FF7C07EA0C070784ED
:100BE000828B018C4FF6FF7707EA043640F6FF4709
:100BF0003A404FF6FF7707EA05273A434FF6FF776B
:100C000007EA03373A43114FB8420ED0104FB842AB
:100C10000BD0B0F1804F08D00E4FB84205D00E4F28
:100C2000B84202D00D4FB84206D14DF6FF77394099
:100C300046F48057394305E047F6FF57394044F4FE
:100C40008057394382830184F0BD0000002C0140AD
:100C5000003401400004004000080040000C004047
:100C6000044800880348008820F0010001490880FA
:100C700070470000100400400448008803480088C2
:100C800020F0010001490880704700001008004072
:100C900021B1028842F08002028004E002884FF60F
:100CA0007F731A4002807047CA430282704721B1A5
:100CB000028842F00102028004E002884FF6FE73CF
:100CC0001A400280704731B1B0F8442042F400422B
:100CD000A0F8442005E0B0F84420C2F30E02A0F8CA
:100CE0004420704710B504466848844208D1012169
:100CF000C014FFF705FD0021E014FFF701FDC4E07B
:100D0000B4F1804F08D101210846FFF7D9FC00213A
:100D10000120FFF7D5FCB8E05D48844208D10121ED
:100D20000220FFF7CDFC00210220FFF7C9FCACE058
:100D30005848844208D101210420FFF7C1FC00215A
:100D40000420FFF7BDFCA0E05348844208D10121F4
:100D50000820FFF7B5FC00210820FFF7B1FC94E064
:100D60004E48844208D101211020FFF7A9FC002140
:100D70001020FFF7A5FC88E04948844208D10121F2
:100D80002020FFF79DFC00212020FFF799FC7CE04C
:100D90004448844208D101214014FFF7B1FC0021EE
:100DA0006014FFF7ADFC70E03F48844209D1012197
:100DB000C804FFF7A5FC00214FF40020FFF7A0FCBA
:100DC00063E03A48844209D101210805FFF798FC05
:100DD00000214FF48010FFF793FC56E03448844222
:100DE00009D101214805FFF78BFC00214FF40010C9
:100DF000FFF786FC49E02F48844208D101214020BA
:100E0000FFF75EFC00214020FFF75AFC3DE02A4836
:100E1000844208D101218020FFF752FC002180206C
:100E2000FFF74EFC31E02548844208D101218015AE
:100E3000FFF746FC0021A015FFF742FC25E0204803
:100E4000844209D101210804FFF75AFC00214FF424
:100E50008030FFF755FC18E01A48844209D101217F
:100E60004804FFF74DFC00214FF40030FFF748FC29
:100E70000BE01548844208D101218804FFF740FCAB
:100E800000214FF48020FFF73BFC10BD002C0140F7
:100E90000004004000080040000C0040001000402A
:100EA0000014004000340140004C0140005001405B
:100EB0000054014000180040001C00400020004089
:100EC000004001400044014000480140F0B50C469C
:100ED00015461E460021002200230189028B038C47
:100EE0004FF6F877394021434FF6FC473A4040F23D
:100EF00001173A434FF6DD773B404FF6FF7707EA9D
:100F000006172F433B43018102830384F0BD000099
:100F100070B505460C46244885420ED023488542CC
:100F20000BD0B5F1804F08D02148854205D021482B
:100F3000854202D02048854200D100E000BF2088D1
:100F400050B92389A28861882846FFF769FDE188A6
:100F5000284600F0A2F925E0208804280AD1238938
:100F6000A28861882846FFF79BFDE188284600F0AB
:100F70009DF917E0208808280AD12389A288618872
:100F80002846FFF7D9FDE188284600F09CF909E0E2
:100F90002389A28861882846FFF716FEE188284643
:100FA00000F09AF970BD0000002C014000340140AF
:100FB0000004004000080040000C004000210180B7
:100FC0004180012181800021C180018170471AB1D7
:100FD00083890B43838102E083898B43838170473C
:100FE00070B5002400220023058C4FF6FE763540B4
:100FF0000584028C8388048B4FF68F752C40B51EB8
:101000002C400D882C43751E2A400D892A434D889B
:101010002A43144DA8420BD0134DA84208D0134DBB
:10102000A84205D0124DA84202D0124DA84213D1B9
:101030004FF6F7752A404D892A434FF6FB752A4033
:101040008D882A434FF6FF652B404FF6FF552B4006
:101050008D892B43CD892B4383800483CD8885865E
:10106000028470BD002C014000340140004001406A
:1010700000440140004801400A460021018B4FF620
:10108000F7731940114301837047000070B50024C5
:1010900000220023058C4FF6EF7635400584028C44
:1010A0008388048B48F6FF752C404FF6FF452C4093
:1010B0000D884FF6FF7606EA05252C434FF6DF75BF
:1010C0002A400D8906EA05152A434D8806EA0515CA
:1010D0002A43154DA84202D0144DA8421DD14FF607
:1010E0007F752A404D894FF6FF7606EA05152A439B
:1010F0004FF6BF752A408D8806EA05152A434FF63C
:10110000FF352B404FF2FF752B408D8906EA850590
:101110002B43CD8906EA85052B4383800483CD8844
:101120000587028470BD0000002C0140003401409E
:101130000A460021018B4FF2FF7319404FF6FF73EF
:1011400003EA0223194301837047000070B50024AD
:1011500000220023058C4FF6FF6635400584028C83
:101160008388848B4FF68F752C404FF6FC752C408E
:101170000D882C434FF6FF552A400D894FF6FF7618
:1011800006EA05252A434D8806EA05252A43154D1A
:10119000A84202D0144DA8421DD14FF2FF752A403B
:1011A0004D894FF6FF7606EA05252A434FF6FF35AF
:1011B0002A408D8806EA05252A434EF6FF752B4006
:1011C0004DF6FF752B408D8906EA05152B43CD8919
:1011D00006EA05152B4383808483CD8885870284A6
:1011E00070BD0000002C0140003401400A4600217F
:1011F000818B4FF6F77319401143818370470000CC
:1012000070B5002200230024058C4EF6FF76354091
:101210000584038C8488828B48F6FF752A404FF63C
:10122000FF452A400D884FF6FF7606EA05252A433A
:101230004DF6FF752B400D8906EA05352B434D8889
:1012400006EA05352B430B4DA84202D00A4DA842B1
:1012500008D14BF6FF752C408D894FF6FF7606EAD4
:1012600085152C4384808283CD88A0F84050038468
:1012700070BD0000002C0140003401400A460021EE
:10128000818B4FF2FF7319404FF6FF7303EA02237D
:1012900019438183704781847047028B4FF6F37343
:1012A0001A400283028B0A4302837047028B4FF27B
:1012B000FF331A400283028B4FF6FF7303EA0123C8
:1012C0001A4302837047828B4FF6F3731A4082836E
:1012D000828B0A4382837047828B4FF2FF331A401E
:1012E0008283828B4FF6FF7303EA01231A438283C2
:1012F00070470000002202881D4B98420ED01D4B03
:1013000098420BD0B0F1804F08D01B4B984205D0CB
:101310001A4B984202D01A4B984204D14FF68F7361
:101320001A404B881A43174B984207D0164B9842E5
:1013300004D04FF6FF431A40CB881A4302808B88B3
:1013400083850B8803850A4B98420BD0094B984242
:1013500008D00E4B984205D00D4B984202D00D4B51
:10136000984201D10B7A03860123838270470000E3
:10137000002C0140003401400004004000080040FF
:10138000000C0040001000400014004000400140EC
:1013900000440140004801404FF6FF718180002168
:1013A0000180C180418001727047000010B50024A7
:1013B00040F22551054800F034F830B1034800F000
:1013C000EBF8C4B2204600F003F810BD003801402D
:1013D00010B5044600BF8021044800F015F800282D
:1013E000F9D02146014800F0DCF810BD003801407A
:1013F00021B1828942F40052828104E082894DF653
:10140000FF731A408281704702460020B1F5007FC9
:1014100000D100BF13880B400BB1012000E0002079
:10142000704770B50246002400230025002040F6D6
:101430006A16B14200D100BFC1F3421501F01F038B
:10144000012606FA03F3012D02D19689334006E006
:10145000022D02D1168A334001E0968A33400C12E5
:10146000012606FA04F41688344013B10CB10120A9
:1014700000E0002070BDF0B50346002400260025E2
:10148000002040F66A17B94200D100BF1846C1F3E8
:10149000421401F01F06012707FA06F5012C01D1BD
:1014A0000C3004E0022C01D1103000E014301AB1ED
:1014B00007682F43076002E00768AF430760F0BD8D
:1014C0002DE9F04786B005460E460024A24600BF2F
:1014D000A1460027B08900B100BF2F462C8A4CF6E8
:1014E000FF700440F08804432C82AC894EF6F31060
:1014F0000440B08831890843718908430443AC81B2
:10150000AC8A4FF6FF400440B0890443AC8201A886
:10151000FFF706F91F48874202D1DDF810A001E06D
:10152000DDF80CA0A88900F4004040B10AEBCA0025
:1015300000EB0A1031684900B0FBF1F807E00AEB54
:10154000CA0000EB0A1031688900B0FBF1F8642092
:10155000B8FBF0F004012009642101FB1089A8897F
:1015600000F4004040B1322000EBC900B0FBF1F0C4
:1015700000F00700044308E0322000EB091064216A
:10158000B0FBF1F000F00F0004432C8106B0BDE881
:10159000F08700000038014001468888C0F3080049
:1015A0007047C1F308028280704700BFFEE7000069
:1015B0000FB4054B10B503A9044A029800F018F8BF
:1015C00010BC5DF814FB00000D180008340000206A
:1015D00002E008C8121F08C1002AFAD170477047FC
:1015E000002001E001C1121F002AFBD1704700005A
:1015F0002DE9FF4F89B09B460446002506E02528CB
:101600000BD05A460B999047641C6D1C207800281B
:10161000F5D10DB02846BDE8F08F0027B84601226D
:10162000474900E0074314F8013F203B02FA03F06A
:101630000842F7D120782E2819D114F8010F47F06D
:1016400004072A280ED06FF02F022078A0F1300175
:1016500009290CD808EB880102EB410100EB0108D5
:10166000641CF2E70A98641C50F8048B0A902078F6
:101670000028CED0642808D0692806D075281ED04E
:101680005A460B9990476D1C58E00A994FF00A0989
:1016900001C90A91002802DA40422D2102E03905F1
:1016A00004D52B218DF82010012103E0F90704D087
:1016B0002021F7E78A4608AE0DE00021FAE70A99F3
:1016C0004FF00A0901C90A91F7E74946FEF74EFDB6
:1016D000303106F8011D0028F7D1ADEB060000F10E
:1016E0002009780701D44FF00108C84502DDA8EBB6
:1016F000090000E000208046002706E008A85A46BE
:10170000C05D0B9990476D1C7F1C5745F6DB04E0CC
:1017100030205A460B9990476D1CB8F10001A8F192
:101720000108F5DC05E016F8010B5A460B999047C5
:101730006D1CB9F10001A9F10109F4DC641C65E735
:101740000928010010B50220FEF7A6FD00F01AF8E6
:101750000220FEF703FF0120FEF700FFFEF7E4FE84
:101760004FF4E13000F0D8F8FEF710FFFEF726FD49
:1017700000214FF43460FEF737FDFEF7A3FDFEF7BE
:10178000EFFD10BD10B50E4800680E49B0FBF1F03A
:10179000C4B26FF00400FFF7FDF8E11704EB5171DC
:1017A000C910094A11701046007800EB4001C1EBE6
:1017B000C0104FF6FF7101EAC0000449088010BD57
:1017C0000800002040420F003000002032000020BE
:1017D00001460D4A12884A434FF0E0235A61002225
:1017E0009A6101221A6100BF4FF0E022106900F0F7
:1017F00001021AB100F48032002AF5D000224FF025
:10180000E0231A619A6170473200002000BF054A48
:10181000128802F04002002AF9D0C2B2014B1B1D0F
:101820001A80704700380140FFF78CFF53E000201A
:10183000FEF7E0FF28490988084400B226490880DD
:101840000120FEF7D7FF404224490988084400B22E
:10185000224908800846B0F900201F48B0F900105E
:101860001FA0FFF7A5FE0120FEF7A8FE68B120A08B
:10187000FFF79EFE22480078401C21490870084668
:101880000078042801DB002008701D48007820B98A
:1018900000210846FFF740F81AE0194800780128AF
:1018A00005D14FF416610846FFF736F810E01448EA
:1018B0000078022804D100210846FFF72DF807E040
:1018C0000F480078032803D10E490846FFF724F893
:1018D000C820FFF77DFFAAE70200002004000020D7
:1018E0004C3A25640920523A25640D0A0000000094
:1018F0004B65792070757420646F776E210D0A0036
:1019000000000020A0F6FFFF0146002901DA48424E
:1019100000E008467047000010B586B0044601217B
:1019200044F20400FEF7DCFE4FF40070ADF8140042
:1019300003208DF8160018208DF8170005A91C4803
:10194000FEF75CFD4FF48060ADF8140004208DF8C4
:10195000170005A91648FEF751FD01940020ADF8C7
:101960000800ADF80A00ADF80C00ADF810000C202E
:10197000ADF80E0001A90F48FFF7A2FD002240F2CA
:1019800025510C48FFF777FD01210A48FFF730FD8C
:1019900025208DF8000000208DF8010001208DF831
:1019A00002008DF803006846FEF740FE06B010BD49
:1019B0000008014000380140D8190008000000204C
:1019C0003C000000D0150008141A00083C0000205C
:1019D00004040000E0150008000000000000000002
:1019E00000A24A04000000000000000001020304FD
:1019F00006070809000000000102030401020304B5
:101A000006070809020406080000000000000000A4
:041A100000000000D2
:0400000508000131BD
:00000001FF
