:020000040800F2
:10000000180400204901000849030008DD02000827
:100010004503000891010008E50400080000000005
:100020000000000000000000000000006D03000858
:10003000BD010008000000004B0300088104000817
:100040006301000863010008630100086301000800
:1000500063010008630100086301000863010008F0
:1000600063010008630100086301000863010008E0
:1000700063010008630100086301000863010008D0
:1000800063010008630100086301000863010008C0
:1000900063010008630100086301000863010008B0
:1000A00063010008630100086301000863010008A0
:1000B0006301000863010008630100086301000890
:1000C0006301000863010008630100086301000880
:1000D0006301000863010008630100086301000870
:1000E0006301000863010008630100086301000860
:1000F0006301000863010008630100086301000850
:10010000630100086301000863010008630100083F
:10011000630100086301000863010008630100082F
:10012000630100086301000863010008630100081F
:10013000DFF810D000F01AF800480047AD050008BD
:10014000AFF30080180400200648804706480047A7
:10015000FEE7FEE7FEE7FEE7FEE7FEE7FEE7FEE777
:10016000FEE7FEE78504000831010008064C074D54
:1001700006E0E06840F0010394E807009847103477
:10018000AC42F6D3FFF7D8FFD8050008F805000801
:1001900000BFFEE70146072323EA01021202054BD6
:1001A00018684FF6FF031840034B18431043014BE8
:1001B000186070470CED00E00000FA0570472DE96B
:1001C000F0410246002500260020002300240027DD
:1001D00091F803C00CF00F0591F803C00CF0100C5F
:1001E000BCF1000F03D091F802C04CEA050591F86C
:1001F00000C0BCF1000F31D0146800202BE04FF09C
:10020000010C0CFA00F3B1F800C00CEA03069E42A0
:1002100020D183004FF00F0C0CFA03F7BC4305FA12
:1002200003FC4CEA040491F803C0BCF1280F06D18A
:100230004FF0010C0CFA00FCC2F814C00AE091F86F
:1002400003C0BCF1480F05D14FF0010C0CFA00FCC3
:10025000C2F810C0401C0828D1D31460B1F800C007
:10026000BCF1FF0F34DD546800202EE000F1080CD3
:100270004FF0010808FA0CF3B1F800C00CEA0306CD
:100280009E4221D183004FF00F0C0CFA03F7BC43C0
:1002900005FA03FC4CEA040491F803C0BCF1280FF2
:1002A00005D100F1080C08FA0CF8C2F8148091F896
:1002B00003C0BCF1480F07D100F1080C4FF0010852
:1002C00008FA0CF8C2F81080401C0828CED35460FD
:1002D000BDE8F081416170470161704700BFFEE7F2
:1002E00008B50121082000F031F80820ADF8000021
:1002F00010208DF8030002208DF8020069460348A3
:10030000FFF75DFF00200249086008BD000C0140B6
:100310008C81214201464906084A926942F0010255
:10032000064B9A61064A526822F0E062044B5A601A
:100330001A4652680A435A60704700000010024093
:100340000000014000BFFEE77047704729B1064A30
:1003500092690243044B9A6104E0034A9269824322
:10036000014B9A617047000000100240704710B5C1
:1003700000F002F810BD00000CB5002001900090C4
:100380003348006840F480303149086000BF30488D
:10039000006800F4003000900198401C0190009823
:1003A00018B90198B0F5A06FF1D12948006800F4A0
:1003B000003010B10120009001E000200090009872
:1003C000012843D12348006840F01000214908600B
:1003D0000846006820F0030008600846006840F006
:1003E000020008601A484068194948600846406899
:1003F00048600846406840F48060486008464068AD
:1004000020F47C1048600846406840F4E8104860DA
:100410000846006840F08070086000BF0C48006823
:1004200000F000700028F9D00948406820F003006F
:10043000074948600846406840F00200486000BF35
:100440000348406800F00C000828F9D10CBD0000FA
:100450000010024000200240042808D14FF0E021A3
:10046000096941F004014FF0E022116107E04FF00B
:10047000E021096921F004014FF0E0221161704789
:100480007047000010B51348006840F001001149A2
:10049000086008464068104908400E494860084610
:1004A00000680E4908400B4908600846006820F4BF
:1004B000802008600846406820F4FE0048604FF441
:1004C0001F008860FFF753FF4FF000600449086089
:1004D00010BD0000001002400000FFF8FFFFF6FE14
:1004E00008ED00E000BFFEE702E008C8121F08C1E7
:1004F000002AFAD170477047002001E001C1121FA5
:10050000002AFBD1704710B50220FFF743FE00F030
:1005100009F80220FFF7FEFE0120FFF7FBFEFFF7C0
:10052000DFFE10BD10B50E4800680E49B0FBF1F0BB
:10053000C4B26FF00400FFF78FFFE11704EB5171B5
:10054000C910094A11701046007800EB4001C1EB58
:10055000C0104FF6FF7101EAC0000449088010BDC9
:100560000000002040420F00140000201600002070
:1005700001460D4A12884A434FF0E0235A61002297
:100580009A6101221A6100BF4FF0E022106900F069
:1005900001021AB100F48032002AF5D000224FF097
:1005A000E0231A619A61704716000020FFF7ABFF45
:1005B0000FE008210748FFF78FFE4FF4FA70FFF7AE
:1005C000D7FF08210348FFF785FE4FF4FA70FFF7C5
:1005D000CFFFEEE7000C0140F80500080000002006
:1005E00018000000E80400081006000818000020A9
:1005F00000040000F804000800A24A040000000003
:1006000000000000010203040607080900000000C2
:0400000508000131BD
:00000001FF
